:100000000C942A000C94CD000C943C000C943C0001
:100010000C943C000C943C000C943C000C943C0070
:100020000C943C000C943C000C943C000C943C0060
:100030000C943C000C943C000C943C000C943C0050
:100040000C943C000C943C000C943C000C943C0040
:100050000C943C0011241FBECFE5D8E0DEBFCDBF1D
:1000600020E0A0E6B0E001C01D92A136B207E1F7A2
:100070000E94E1010C9498050C94000060E080E07F
:100080000E94AD0161E080E00E94AD0162E080E08D
:100090000E94AD0160E081E00E94AD0161E081E07D
:1000A0000E94AD0162E081E00E94AD01089581E00F
:1000B0008093600060E080E00E94A90162E081E03E
:1000C0000E94A9010895CF9382E080936000C0E070
:1000D0001DC061E080E00E94A90161E081E00E9412
:1000E000A90164EF71E080E090E00E94180161E0F6
:1000F00080E00E94AD0161E081E00E94AD0164EF0B
:1001000071E080E090E00E941801CF5FC53008F3F5
:10011000CF91089583E08093600062E080E00E94C8
:10012000A90160E081E00E94A90108950E943E00BB
:100130000E94570068E873E180E090E00E94180197
:100140000E943E000E9463000E943E000E948A00BE
:1001500068E873E180E090E00E9418010E943E0090
:100160000E9463000895809160008330A9F081505F
:10017000823060F40E943E000E9463000E948A0068
:1001800068E873E180E090E00E9418010E943E0060
:100190000E9463000E943E0008951F920F920FB6C6
:1001A0000F9211242F933F934F935F936F937F93FD
:1001B0008F939F93AF93BF93EF93FF930E94B501EB
:1001C0000E94B3000E94B101FF91EF91BF91AF91E6
:1001D0009F918F917F916F915F914F913F912F915F
:1001E0000F900FBE0F901F90189560E080E00E9466
:1001F000A50161E080E00E94A50162E080E00E942C
:10020000A50160E081E00E94A50161E081E00E941B
:10021000A50162E081E00E94A50182E00E94BD018B
:100220000E94B9010E94B10108950E949600FDCF7D
:100230008F929F92AF92BF92CF92DF92EF92FF92F6
:10024000CF939B01AC01A8EEB3E00E947E056B0149
:100250007C0180E094E00E94EE02C701B6010E949A
:100260005F046B017C0120E030E040E858E40E942C
:10027000B9031816C4F0A701960160E070E080E8A9
:1002800098E40E944C0320E030E040E85AE30E94EA
:1002900011050E943004862F0E9440030E944203F1
:1002A0008130E1F748C020E030E040E856E3C70184
:1002B000B6010E94110520E030E040E85FE30E94B3
:1002C0004D030E9430044B015C0120E030E040E827
:1002D0005AE3C701B6010E9411056B017C01C501FB
:1002E000B4010E945F049B01AC01C701B6010E94EA
:1002F000BE039B01AC0160E070E080E893E40E94E3
:100300004C030E943004C62F862F0E944003C12C4C
:10031000D12C76010E944203813041F48C2F0E943F
:1003200040038FEFC81AD80AE80AF80AC814D9049B
:10033000EA04FB0479F7CF91FF90EF90DF90CF9024
:10034000BF90AF909F908F90089541E00E94E80188
:10035000089541E00E945D02089540E00E945D0220
:1003600008958FB780688FBF08958FB78F778FBF3D
:1003700008958BB780648BBF0895813069F028F0B1
:10038000823089F08330B1F0089585B78E7F85BFC4
:1003900085B78D7F85BF089585B7816085BF85B797
:1003A0008D7F85BF089585B78E7F85BF85B78260B5
:1003B00085BF089585B7816085BF85B7826085BF99
:1003C00008950E94F5000E94150180E090E00895D4
:1003D000813011F130F08230D1F1833009F452C014
:1003E0000895413059F42AB381E090E002C0880FAB
:1003F000991F6A95E2F7822B8ABB089541115CC070
:100400002AB381E090E002C0880F991F6A95E2F755
:10041000809582238ABB0895413059F427B381E047
:1004200090E002C0880F991F6A95E2F7822B87BB84
:100430000895411141C027B381E090E002C0880FC8
:10044000991F6A95E2F78095822387BB0895413012
:1004500059F424B381E090E002C0880F991F6A9597
:10046000E2F7822B84BB0895411126C024B381E0BA
:1004700090E002C0880F991F6A95E2F78095822369
:1004800084BB0895413059F421B381E090E002C06B
:10049000880F991F6A95E2F7822B81BB089541115D
:1004A0000BC021B381E090E002C0880F991F6A95CC
:1004B000E2F78095822381BB0895813011F130F0FD
:1004C0008230D1F1833009F452C00895413059F49B
:1004D0002BB381E090E002C0880F991F6A95E2F784
:1004E000822B8BBB089541115CC02BB381E090E05F
:1004F00002C0880F991F6A95E2F7809582238BBB13
:100500000895413059F428B381E090E002C0880F8B
:10051000991F6A95E2F7822B88BB0895411141C06B
:1005200028B381E090E002C0880F991F6A95E2F736
:100530008095822388BB0895413059F425B381E02A
:1005400090E002C0880F991F6A95E2F7822B85BB65
:100550000895411126C025B381E090E002C0880FC4
:10056000991F6A95E2F78095822385BB08954130F3
:1005700059F422B381E090E002C0880F991F6A9578
:10058000E2F7822B82BB089541110BC022B381E0B8
:1005900090E002C0880F991F6A95E2F78095822348
:1005A00082BB0895811107C083B78F7B83BF83B758
:1005B000877F83BF0895813031F483B78F7B83BFFA
:1005C00083B7886083BF089583B78E7F83BF83B767
:1005D0008D7F83BF83B78B7F83BF0895CF93DF93D6
:1005E000EC0180E00E94D202C830D105F9F028F475
:1005F000209779F0219781F040C0C11581E0D8079C
:1006000049F1C11584E0D80779F1C034D105A9F5C5
:1006100017C00E94E40231C083B7816083BF83B7F3
:100620008D7F83BF83B78B7F83BF27C083B78E7FC8
:1006300083BF83B7826083BF83B78B7F83BF1DC0B7
:1006400083B7816083BF83B7826083BF83B78B7FAB
:1006500083BF13C083B78E7F83BF83B78D7F83BF74
:1006600083B7846083BF09C083B7816083BF83B7CA
:100670008D7F83BF83B7846083BFDF91CF9108955F
:1006800082BF089508B600FE05C088B7816088BFA4
:1006900081E0089580E008955058BB27AA270E9462
:1006A00064030C94D7040E94C90438F00E94D0045B
:1006B00020F039F49F3F19F426F40C94C6040EF48C
:1006C000E095E7FB0C94C004E92F0E94E80458F37E
:1006D000BA17620773078407950720F079F4A6F527
:1006E0000C940A050EF4E0950B2EBA2FA02D0B01E9
:1006F000B90190010C01CA01A0011124FF27591B67
:1007000099F0593F50F4503E68F11A16F040A22F6C
:10071000232F342F4427585FF3CF469537952795DD
:10072000A795F0405395C9F77EF41F16BA0B620BDC
:10073000730B840BBAF09150A1F0FF0FBB1F661F23
:10074000771F881FC2F70EC0BA0F621F731F841F66
:1007500048F4879577956795B795F7959E3F08F08C
:10076000B0CF9395880F08F09927EE0F979587954E
:1007700008950E949C0408F481E008950E94D20329
:100780000C94D7040E94D00458F00E94C90440F091
:1007900029F45F3F29F00C94C00451110C940B050F
:1007A0000C94C6040E94E80468F39923B1F355231E
:1007B00091F3951B550BBB27AA2762177307840774
:1007C00038F09F5F5F4F220F331F441FAA1FA9F30A
:1007D00035D00E2E3AF0E0E832D091505040E695F8
:1007E000001CCAF72BD0FE2F29D0660F771F881F59
:1007F000BB1F261737074807AB07B0E809F0BB0B4C
:10080000802DBF01FF2793585F4F3AF09E3F51055F
:1008100078F00C94C0040C940B055F3FE4F3983E11
:10082000D4F3869577956795B795F7959F5FC9F748
:10083000880F911D9695879597F90895E1E0660FC9
:10084000771F881FBB1F621773078407BA0720F042
:10085000621B730B840BBA0BEE1F88F7E0950895AB
:100860000E94F00488F09F5798F0B92F9927B7514C
:10087000B0F0E1F0660F771F881F991F1AF0BA9544
:10088000C9F714C0B13091F00E940A05B1E0089593
:100890000C940A05672F782F8827B85F39F0B93F85
:1008A000CCF3869577956795B395D9F73EF49095F7
:1008B0008095709561957F4F8F4F9F4F0895E89475
:1008C00009C097FB3EF490958095709561957F4F98
:1008D0008F4F9F4F9923A9F0F92F96E9BB27939546
:1008E000F695879577956795B795F111F8CFFAF456
:1008F000BB0F11F460FF1BC06F5F7F4F8F4F9F4F87
:1009000016C0882311F096E911C0772321F09EE8E4
:10091000872F762F05C0662371F096E8862F70E04A
:1009200060E02AF09A95660F771F881FDAF7880F24
:100930009695879597F90895990F0008550FAA0B7A
:10094000E0E8FEEF16161706E807F907C0F01216E2
:100950001306E407F50798F0621B730B840B950BE5
:1009600039F40A2661F0232B242B252B21F408953A
:100970000A2609F4A140A6958FEF811D811D0895D7
:1009800097F99F6780E870E060E008959FEF80EC42
:10099000089500240A9416161706180609060895E5
:1009A00000240A9412161306140605060895092E4B
:1009B0000394000C11F4882352F0BB0F40F4BF2BBA
:1009C00011F460FF04C06F5F7F4F8F4F9F4F0895FA
:1009D00057FD9058440F551F59F05F3F71F04795F0
:1009E000880F97FB991F61F09F3F79F087950895D5
:1009F000121613061406551FF2CF4695F1DF08C0F4
:100A0000161617061806991FF1CF86957105610510
:100A100008940895E894BB2766277727CB0197F9B8
:100A200008950E9424050C94D7040E94C90438F04C
:100A30000E94D00420F0952311F00C94C0040C9473
:100A4000C60411240C940B050E94E80470F3959FD2
:100A5000C1F3950F50E0551F629FF001729FBB27B5
:100A6000F00DB11D639FAA27F00DB11DAA1F649F51
:100A70006627B00DA11D661F829F2227B00DA11D04
:100A8000621F739FB00DA11D621F839FA00D611D8A
:100A9000221F749F3327A00D611D231F849F600DAB
:100AA000211D822F762F6A2F11249F5750409AF0D4
:100AB000F1F088234AF0EE0FFF1FBB1F661F771F60
:100AC000881F91505040A9F79E3F510580F00C942B
:100AD000C0040C940B055F3FE4F3983ED4F3869575
:100AE00077956795B795F795E7959F5FC1F7FE2BCB
:100AF000880F911D9695879597F908950E9489050D
:100B0000A59F900DB49F900DA49F800D911D112461
:100B10000895A29FB001B39FC001A39F700D811DD6
:100B20001124911DB29F700D811D1124911D0895F6
:040B3000F894FFCF67
:00000001FF
